:1000000071C0000086C0000084C0000082C00000F3
:1000100080C000007EC000007CC000007AC00000EC
:1000200078C0000076C0000074C0000072C00000FC
:1000300070C000006EC000006CC000006AC000000C
:1000400068C0000066C0000064C0000062C000001C
:1000500060C000005EC000005CC000005AC000002C
:1000600058C0000056C0000054C0000052C000003C
:1000700050C000004EC000004CC000004AC000004C
:1000800048C0000046C0000044C0000042C000005C
:1000900040C000003EC000003CC000003AC000006C
:1000A00038C0000036C0000034C0000032C000007C
:1000B00030C000002EC000002CC000002AC000008C
:1000C00028C0000026C0000024C0000022C000009C
:1000D00020C000001EC000001CC000001AC00000AC
:1000E00018C0000011241FBECFEFD1E2DEBFCDBF8C
:1000F00000E00CBF13E0A0E0B2E0EEEAFBE000E0BD
:100100000BBF02C007900D92A231B107D9F7F6D20A
:100110004CC576CFCF93DF93CDB7DEB764970FB6DC
:10012000F894DEBF0FBECDBF80E7898380EB8A8362
:1001300080ED8B8380EE8C8380E1E0E0F2E0DE01F5
:10014000159601900D928A95E1F780EF81B980E0D4
:1001500090E04FEF5FEF3DC0E1E0F0E0EC0FFD1FFE
:10016000E80FF91F208122B920B12F3089F1EFE388
:10017000FCE93197F1F700C0000020B12F702B305F
:1001800049F018F4273079F010C02D3031F02E30BE
:1001900039F00BC041E050E008C042E050E005C03B
:1001A00043E050E002C040E050E04F3FFFEF5F0708
:1001B00079F0440F551F440F551F21E030E02C0FFC
:1001C0003D1F420F531FFA01E80FF91F848106C03B
:1001D0000196843091050CF4BFCF80E264960FB68F
:1001E000F894DEBF0FBECDBFDF91CF910895E8E058
:1001F000F1E06083962F9160908381BB60830895C6
:100200008FEF80BB83E08093070160E070E088E3BC
:1002100090E0EDDF60E070E08FE090E0E8DF60E02C
:1002200070E086E090E0E3DF60E070E081E090E085
:10023000DECF0895CF93DF93EC0103C062E0D7DFF8
:10024000219688818111FACFDF91CF910895415095
:1002500007C0FB01E40FF11D47FDFA958083415073
:100260004423BCF70895EF92FF920F931F93CF930F
:100270008A01CFEFC20F12C07801EC0EF11CC7FD4E
:10028000FA942AE030E040E050E04ED4605DF7019F
:100290006083622F732F842F952FC150CC2364F776
:1002A000CF911F910F91FF90EF9008950F931F939F
:1002B000CF93DF93FC01EB01A42FB0E0D09728810E
:1002C00039814A815B815CD4008111812281338133
:1002D000DC01CB01800F911FA21FB31F808391838C
:1002E000A283B383688179818A819B812AE030E08F
:1002F00040E050E019D4288339834A835B83DF913F
:10030000CF911F910F9108950F931F93CF93DF9378
:10031000EC018B01FB0180819181A281B381AC0151
:10032000BD01440F551F661F771FDB01CA01880FEF
:10033000991FAA1FBB1F880F991FAA1FBB1F9A01D5
:10034000AB01280F391F4A1F5B1F20833183428373
:100350005383688179818A819B81E6D3288339839D
:100360004A835B83F8016081718182819381CDD35F
:10037000688379838A839B83DF91CF911F910F914B
:1003800008954F925F926F927F928F929F92AF9259
:10039000BF92CF92DF92EF92FF92CF93DF93CDB7D0
:1003A000DEB72C970FB6F894DEBF0FBECDBF23E2A9
:1003B00024BDDC01CD90DD90ED90FC9069E07DE303
:1003C00080E090E0A7019601AFD349015A012F3F89
:1003D0003F4F4105510520F526013701032E3AE034
:1003E000440C551C661C771C3A95D1F7302D60E003
:1003F00074E284EF90E0A301920196D3672B682BFF
:10040000692B71F460E074E284EF90E0A301920143
:100410008BD3622F732F842F952F2DE025BD59C1CB
:1004200064E274EF80E090E0A70196017DD3298318
:100430003A834B835C832F3F3F4F41055105E8F4DE
:1004400044245C2C6D2C7E2C60E074E284EF90E000
:10045000A301920169D3672B682B692B71F460E0CB
:1004600074E284EF90E0A30192015ED3622F732FB8
:10047000842F952F2CE025BD2CC160E970ED83E021
:1004800090E0A701960150D32D833E834F83588778
:100490002F3F3F4F4105510598F526013701440C88
:1004A000551C661C771C440C551C661C771C440CA0
:1004B000551C661C771C440C551C661C771C440C90
:1004C000551C661C771C440C551C661C771C60E090
:1004D00074E284EF90E0A301920126D3672B682B8E
:1004E000692B71F460E074E284EF90E0A301920163
:1004F0001BD3622F732F842F952F2BE025BDE9C0CE
:1005000060E874E88EE190E0A70196010DD3298799
:100510003A874B875C872F3F3F4F4105510538F5A0
:1005200026013701440C551C661C771C440C551CD5
:10053000661C771C440C551C661C771C60E074E23A
:1005400084EF90E0A3019201EFD2672B682B692B17
:1005500071F460E074E284EF90E0A3019201E4D2D0
:10056000622F732F842F952F2AE025BDB2C060E043
:1005700074E284EF90E0A7019601D6D229013A01F6
:100580002F3F3F4F4105510590F460E074E284EF46
:1005900090E0A7019601C8D2672B682B692B39F42C
:1005A000642D752D862D972D29E025BD92C0AFEFC6
:1005B0008A169A06A104B104B8F4A7019601012E87
:1005C0001AE0220F331F441F551F1A95D1F7102D23
:1005D00060E074E284EF90E0A7D2622F732F842F43
:1005E000952F2DE025BD75C089819A81AB81BC8195
:1005F0008F3F9F4FA105B10580F45E2D4D2D3C2D01
:10060000222760E074E284EF90E08ED2622F732F95
:10061000842F952F2CE025BD5CC08D819E81AF81FC
:10062000B8858F3F9F4FA105B10540F5D701C601A1
:10063000880F991FAA1FBB1F880F991FAA1FBB1FD6
:10064000880F991FAA1FBB1F880F991FAA1FBB1FC6
:100650009C01AD01220F331F441F551F220F331F72
:10066000441F551F60E074E284EF90E05DD2622F7A
:10067000732F842F952F2BE025BD2BC089859A855C
:10068000AB85BC858F3F9F4FA105B105E0F4D70135
:10069000C601880F991FAA1FBB1F880F991FAA1F89
:1006A000BB1F9C01AD01220F331F441F551F60E08B
:1006B00074E284EF90E038D2622F732F842F952F4D
:1006C0002AE025BD06C0642D752D862D972D29E0C5
:1006D00025BD2C960FB6F894DEBF0FBECDBFDF91BF
:1006E000CF91FF90EF90DF90CF90BF90AF909F9011
:1006F0008F907F906F905F904F900895CF93DF938E
:10070000CDB7DEB72C970FB6F894DEBF0FBECDBFC6
:1007100083B3806283BB74DD80E192E08BDD60E0B7
:1007200080EC65DD81E292E085DD2FEF83ED90E3E3
:10073000215080409040E1F700C0000060E081E07F
:1007400056DD82E392E076DD60E080EC50DD83E40C
:1007500092E070DD2FEF83ED90E3215080409040D8
:10076000E1F700C0000060E081E041DD84E592E057
:1007700061DD60E080EC3BDD85E692E05BDD2FEF44
:1007800083ED90E3215080409040E1F700C00000ED
:1007900060E081E02CDD86E792E04CDD60E080ECFB
:1007A00026DD87E892E046DD2FEF83ED90E32150D0
:1007B00080409040E1F700C00000C12C9EC060E086
:1007C00080EC15DD19821A821B821C8280EA96E871
:1007D000A1E0B0E089879A87AB87BC8700E00F2E45
:1007E000F1ECEF2EF02DF12C78C02FEF81EE94E09C
:1007F000215080409040E1F700C0000010E202C0AC
:1008000089DC182F1032E1F31234D1F31334C1F321
:100810001434B1F31A3209F45BC0113369F40111D5
:100820000BC080EA96E8A1E0B0E089839A83AB83AD
:10083000BC83FF24F3944EC01332F1F4002309F477
:1008400049C001501FEF1E0DEA94EA9460E08E2D1E
:10085000CEDC41E067EA72E080E2F9DC87EA92E010
:10086000E9DC60E08E2DC3DCBE01675F7F4FCE0107
:1008700001964ADDE12E2EC0113479F460E081E06A
:10088000B6DC88E992E0D6DC60E080ECB0DC88E998
:1008900092E0D0DC80E090E088D1103311F00023AA
:1008A000C9F00630B9F041E067EA72E0812FCFDC91
:1008B00087EA92E0BFDC60E08E2D99DC412FBE011B
:1008C000675F7F4FCE010196F1DCE3940F5F02C0BA
:1008D000FF24F394E7EAF2E0E08307301CF421E020
:1008E000F21283CF89819A81AB81BC81813A96488B
:1008F000A140B10510F4CC24C39481E0C8125FCFAD
:1009000069817A818B819C8126E049EA52E0ABDCE7
:1009100060E081E06CDC83EB92E08CDC60E080ECFA
:1009200066DC84EC92E086DC9FEF23ED80E391505F
:1009300020408040E1F700C0000060E081E057DC2B
:1009400085ED92E077DC60E080EC51DC86EE92E0B1
:1009500071DCD12C9DC060E080EC49DC84E690E045
:10096000A0E0B0E089879A87AB87BC871D821E8292
:100970001F82188600E00F2EF1ECEF2EF02DF12CE7
:1009800078C09FEF21EE84E0915020408040E1F755
:1009900000C0000010E202C0BDDB182F1032E1F3EE
:1009A0001234D1F31334C1F31434B1F31A3209F40D
:1009B0005BC0113369F401110BC084E690E0A0E044
:1009C000B0E08D839E83AF83B887FF24F3944EC03D
:1009D0001332F1F4002309F449C001501FEF1E0D3A
:1009E000EA94EA9460E08E2D02DC41E067EA72E06E
:1009F00080E22DDC87EA92E01DDC60E08E2DF7DBE3
:100A0000BE01675F7F4FCE0105967EDCE12E2EC0D2
:100A1000113479F460E081E0EADB88E992E00ADCF5
:100A200060E080ECE4DB88E992E004DC80E090E0C8
:100A3000BCD0103311F00023C9F00330B9F041E00D
:100A400067EA72E0812F03DC87EA92E0F3DB60E083
:100A50008E2DCDDB412FBE01675F7F4FCE01059606
:100A600025DCE3940F5F02C0FF24F394E7EAF2E091
:100A7000E08304301CF491E0F91283CF8D819E81D4
:100A8000AF81B88585369105A105B10508F4DC2C48
:100A900021E0D21260CF6D817E818F81988523E025
:100AA00047EF52E0E0DB8FEF91EE24E08150904081
:100AB0002040E1F700C0000060E081E098DB81E0C9
:100AC00093E0B8DB89EA92E0B5DB60E080EC8FDB95
:100AD00089E093E0AFDB87EF92E0ACDBCE010196DB
:100AE00050DC162F372F482F592F6D817E818F8133
:100AF0009885212F0AD024E630E040E050E014D061
:100B000016BC115017BD28BDFFCFDB018F939F93FB
:100B10002DD0BF91AF91A29F800D911DA39F900DED
:100B2000B29F900D11240895A1E21A2EAA1BBB1B9F
:100B3000FD010DC0AA1FBB1FEE1FFF1FA217B307A9
:100B4000E407F50720F0A21BB30BE40BF50B661FBF
:100B5000771F881F991F1A9469F760957095809583
:100B600090959B01AC01BD01CF0108950FD0A59FC9
:100B7000900DB49F900DA49F800D911D1124089598
:100B8000B7FFF4CFF3DF821B930B0895A29FB00150
:100B9000B39FC001A39F700D811D1124911DB29FB1
:0E0BA000700D811D1124911D0895F894FFCF52
:100BAE003132334134353642373839432A302344D3
:100BBE002020537175617265205761766520202063
:100BCE000020202047656E657261746F72202020B0
:100BDE00200020202020454E5445523A202A202025
:100BEE002020002020202044454C4554453A202307
:100BFE0020202000202020202053746F703A2041A6
:100C0E0020202020004D61782046726571203D2005
:100C1E0031306B487A00456E74657220467265718C
:100C2E0075656E63793A0020202020202020487AB6
:100C3E0020202020202020002020202020202020C6
:100C4E0020202020202020200020202020202020B6
:100C5E00487A004D61782044757479204379636C2D
:100C6E0065203D00202020202020313030202520FE
:100C7E002020202000456E746572204475747943DF
:100C8E0079636C653A00202020202520202020202A
:100C9E002020202020200020202020252020202061
:100CAE000046726571203D200044757479203D2008
:020CBE00000034
:00000001FF
