:1000000071C000008EC000008CC000008AC00000DB
:1000100088C0000086C0000084C0000082C00000CC
:1000200080C000007EC000007CC000007AC00000DC
:1000300078C0000076C0000074C0000072C00000EC
:1000400070C000006EC000006CC000006AC00000FC
:1000500068C0000066C0000064C0000062C000000C
:1000600060C000005EC000005CC000005AC000001C
:1000700058C0000056C0000054C0000052C000002C
:1000800050C000004EC000004CC000004AC000003C
:1000900048C0000046C0000044C0000042C000004C
:1000A00040C000003EC000003CC000003AC000005C
:1000B00038C000008AC0000034C0000032C0000018
:1000C00030C000002EC000002CC000002AC000007C
:1000D00028C0000026C0000024C0000022C000008C
:1000E00020C0000011241FBECFEFD1E2DEBFCDBF84
:1000F00000E00CBF12E0A0E0B2E0E6EAF3E000E0CE
:100100000BBF02C007900D92A432B107D9F722E0CD
:10011000A4E2B2E001C01D92A632B207E1F76CD0B2
:1001200040C16ECFE8E0F1E06083962F916090834C
:1001300081BB608308958FEF80BB83E080930701CC
:1001400060E070E088E390E0EDDF60E070E08FE079
:1001500090E0E8DF60E070E086E090E0E3DF60E000
:1001600070E081E090E0DECF0895CF93DF93EC0163
:1001700003C062E0D7DF219688818111FACFDF9139
:10018000CF910895EF92FF920F931F93CF938A011F
:10019000CFEFC20F12C07801EC0EF11CC7FDFA942C
:1001A0002AE030E040E050E0DAD0605DF7016083A3
:1001B000622F732F842F952FC150CC2364F7CF91DA
:1001C0001F910F91FF90EF9008951F920F920FB61D
:1001D0000F9211248F939F93809124029091250276
:1001E000019690932502809324029F918F910F9006
:1001F0000FBE0F901F9018959EDF1092A000EAE0AE
:10020000F1E080818E7F80838FE289BB81E08093E3
:100210007200789460E081E085DF80E092E0A5DF05
:1002200089E092E0A2DF60E080EC7CDF82E192E096
:100230009CDF83E48093A10081E289BB1092A5003A
:100240001092A4001092250210922402CD9BFECFA2
:1002500080912402909125028091A6009091A700A0
:1002600021E229BB1092250210922402CD9BFECFE1
:1002700020912402309125022091A6003091A70000
:10028000281B390B81E289BB1092A5001092A400B3
:100290001092250210922402CD9BFECF8091240261
:1002A000909125028091A6009091A70041E249BB60
:1002B000109225021092240243E04093A100CD9BAE
:1002C000FECF40912402509125024091A60050910A
:1002D000A700481B590B64E6649FC001659F900D01
:1002E0001124B90128D0EB01B90100247695679556
:1002F0000794769567950794762F602D7295629591
:100300006F7067277F70672780E090E025E049E005
:1003100052E038DFBE0180E090E023E04EE152E0A1
:1003200031DF2FEF83ED90E3215080409040E1F7E3
:1003300000C000006FCFAA1BBB1B51E107C0AA1F62
:10034000BB1FA617B70710F0A61BB70B881F991F76
:100350005A95A9F780959095BC01CD010895A1E229
:100360001A2EAA1BBB1BFD010DC0AA1FBB1FEE1F2F
:10037000FF1FA217B307E407F50720F0A21BB30B7A
:10038000E40BF50B661F771F881F991F1A9469F7F6
:1003900060957095809590959B01AC01BD01CF0152
:0603A0000895F894FFCF60
:1003A600506572696F643A20002020202020207555
:1003B600730044757479204379636C653A20202074
:0403C60020250000EE
:00000001FF
